{"abi":[{"type":"constructor","inputs":[{"name":"poolManager_","type":"address","internalType":"contract IPoolManager"},{"name":"numTokensToSell_","type":"uint256","internalType":"uint256"},{"name":"minimumProceeds_","type":"uint256","internalType":"uint256"},{"name":"maximumProceeds_","type":"uint256","internalType":"uint256"},{"name":"startingTime_","type":"uint256","internalType":"uint256"},{"name":"endingTime_","type":"uint256","internalType":"uint256"},{"name":"startingTick_","type":"int24","internalType":"int24"},{"name":"endingTick_","type":"int24","internalType":"int24"},{"name":"epochLength_","type":"uint256","internalType":"uint256"},{"name":"gamma_","type":"int24","internalType":"int24"},{"name":"isToken0_","type":"bool","internalType":"bool"},{"name":"numPDSlugs_","type":"uint256","internalType":"uint256"},{"name":"initializer_","type":"address","internalType":"address"},{"name":"initialLpFee_","type":"uint24","internalType":"uint24"}],"stateMutability":"nonpayable"},{"type":"receive","stateMutability":"payable"},{"type":"function","name":"afterAddLiquidity","inputs":[{"name":"sender","type":"address","internalType":"address"},{"name":"key","type":"tuple","internalType":"struct PoolKey","components":[{"name":"currency0","type":"address","internalType":"Currency"},{"name":"currency1","type":"address","internalType":"Currency"},{"name":"fee","type":"uint24","internalType":"uint24"},{"name":"tickSpacing","type":"int24","internalType":"int24"},{"name":"hooks","type":"address","internalType":"contract IHooks"}]},{"name":"params","type":"tuple","internalType":"struct IPoolManager.ModifyLiquidityParams","components":[{"name":"tickLower","type":"int24","internalType":"int24"},{"name":"tickUpper","type":"int24","internalType":"int24"},{"name":"liquidityDelta","type":"int256","internalType":"int256"},{"name":"salt","type":"bytes32","internalType":"bytes32"}]},{"name":"delta","type":"int256","internalType":"BalanceDelta"},{"name":"feesAccrued","type":"int256","internalType":"BalanceDelta"},{"name":"hookData","type":"bytes","internalType":"bytes"}],"outputs":[{"name":"","type":"bytes4","internalType":"bytes4"},{"name":"","type":"int256","internalType":"BalanceDelta"}],"stateMutability":"nonpayable"},{"type":"function","name":"afterDonate","inputs":[{"name":"sender","type":"address","internalType":"address"},{"name":"key","type":"tuple","internalType":"struct PoolKey","components":[{"name":"currency0","type":"address","internalType":"Currency"},{"name":"currency1","type":"address","internalType":"Currency"},{"name":"fee","type":"uint24","internalType":"uint24"},{"name":"tickSpacing","type":"int24","internalType":"int24"},{"name":"hooks","type":"address","internalType":"contract IHooks"}]},{"name":"amount0","type":"uint256","internalType":"uint256"},{"name":"amount1","type":"uint256","internalType":"uint256"},{"name":"hookData","type":"bytes","internalType":"bytes"}],"outputs":[{"name":"","type":"bytes4","internalType":"bytes4"}],"stateMutability":"nonpayable"},{"type":"function","name":"afterInitialize","inputs":[{"name":"sender","type":"address","internalType":"address"},{"name":"key","type":"tuple","internalType":"struct PoolKey","components":[{"name":"currency0","type":"address","internalType":"Currency"},{"name":"currency1","type":"address","internalType":"Currency"},{"name":"fee","type":"uint24","internalType":"uint24"},{"name":"tickSpacing","type":"int24","internalType":"int24"},{"name":"hooks","type":"address","internalType":"contract IHooks"}]},{"name":"sqrtPriceX96","type":"uint160","internalType":"uint160"},{"name":"tick","type":"int24","internalType":"int24"}],"outputs":[{"name":"","type":"bytes4","internalType":"bytes4"}],"stateMutability":"nonpayable"},{"type":"function","name":"afterRemoveLiquidity","inputs":[{"name":"sender","type":"address","internalType":"address"},{"name":"key","type":"tuple","internalType":"struct PoolKey","components":[{"name":"currency0","type":"address","internalType":"Currency"},{"name":"currency1","type":"address","internalType":"Currency"},{"name":"fee","type":"uint24","internalType":"uint24"},{"name":"tickSpacing","type":"int24","internalType":"int24"},{"name":"hooks","type":"address","internalType":"contract IHooks"}]},{"name":"params","type":"tuple","internalType":"struct IPoolManager.ModifyLiquidityParams","components":[{"name":"tickLower","type":"int24","internalType":"int24"},{"name":"tickUpper","type":"int24","internalType":"int24"},{"name":"liquidityDelta","type":"int256","internalType":"int256"},{"name":"salt","type":"bytes32","internalType":"bytes32"}]},{"name":"delta","type":"int256","internalType":"BalanceDelta"},{"name":"feesAccrued","type":"int256","internalType":"BalanceDelta"},{"name":"hookData","type":"bytes","internalType":"bytes"}],"outputs":[{"name":"","type":"bytes4","internalType":"bytes4"},{"name":"","type":"int256","internalType":"BalanceDelta"}],"stateMutability":"nonpayable"},{"type":"function","name":"afterSwap","inputs":[{"name":"sender","type":"address","internalType":"address"},{"name":"key","type":"tuple","internalType":"struct PoolKey","components":[{"name":"currency0","type":"address","internalType":"Currency"},{"name":"currency1","type":"address","internalType":"Currency"},{"name":"fee","type":"uint24","internalType":"uint24"},{"name":"tickSpacing","type":"int24","internalType":"int24"},{"name":"hooks","type":"address","internalType":"contract IHooks"}]},{"name":"params","type":"tuple","internalType":"struct IPoolManager.SwapParams","components":[{"name":"zeroForOne","type":"bool","internalType":"bool"},{"name":"amountSpecified","type":"int256","internalType":"int256"},{"name":"sqrtPriceLimitX96","type":"uint160","internalType":"uint160"}]},{"name":"delta","type":"int256","internalType":"BalanceDelta"},{"name":"hookData","type":"bytes","internalType":"bytes"}],"outputs":[{"name":"","type":"bytes4","internalType":"bytes4"},{"name":"","type":"int128","internalType":"int128"}],"stateMutability":"nonpayable"},{"type":"function","name":"beforeAddLiquidity","inputs":[{"name":"sender","type":"address","internalType":"address"},{"name":"key","type":"tuple","internalType":"struct PoolKey","components":[{"name":"currency0","type":"address","internalType":"Currency"},{"name":"currency1","type":"address","internalType":"Currency"},{"name":"fee","type":"uint24","internalType":"uint24"},{"name":"tickSpacing","type":"int24","internalType":"int24"},{"name":"hooks","type":"address","internalType":"contract IHooks"}]},{"name":"params","type":"tuple","internalType":"struct IPoolManager.ModifyLiquidityParams","components":[{"name":"tickLower","type":"int24","internalType":"int24"},{"name":"tickUpper","type":"int24","internalType":"int24"},{"name":"liquidityDelta","type":"int256","internalType":"int256"},{"name":"salt","type":"bytes32","internalType":"bytes32"}]},{"name":"hookData","type":"bytes","internalType":"bytes"}],"outputs":[{"name":"","type":"bytes4","internalType":"bytes4"}],"stateMutability":"nonpayable"},{"type":"function","name":"beforeDonate","inputs":[{"name":"sender","type":"address","internalType":"address"},{"name":"key","type":"tuple","internalType":"struct PoolKey","components":[{"name":"currency0","type":"address","internalType":"Currency"},{"name":"currency1","type":"address","internalType":"Currency"},{"name":"fee","type":"uint24","internalType":"uint24"},{"name":"tickSpacing","type":"int24","internalType":"int24"},{"name":"hooks","type":"address","internalType":"contract IHooks"}]},{"name":"amount0","type":"uint256","internalType":"uint256"},{"name":"amount1","type":"uint256","internalType":"uint256"},{"name":"hookData","type":"bytes","internalType":"bytes"}],"outputs":[{"name":"","type":"bytes4","internalType":"bytes4"}],"stateMutability":"nonpayable"},{"type":"function","name":"beforeInitialize","inputs":[{"name":"sender","type":"address","internalType":"address"},{"name":"key","type":"tuple","internalType":"struct PoolKey","components":[{"name":"currency0","type":"address","internalType":"Currency"},{"name":"currency1","type":"address","internalType":"Currency"},{"name":"fee","type":"uint24","internalType":"uint24"},{"name":"tickSpacing","type":"int24","internalType":"int24"},{"name":"hooks","type":"address","internalType":"contract IHooks"}]},{"name":"sqrtPriceX96","type":"uint160","internalType":"uint160"}],"outputs":[{"name":"","type":"bytes4","internalType":"bytes4"}],"stateMutability":"nonpayable"},{"type":"function","name":"beforeRemoveLiquidity","inputs":[{"name":"sender","type":"address","internalType":"address"},{"name":"key","type":"tuple","internalType":"struct PoolKey","components":[{"name":"currency0","type":"address","internalType":"Currency"},{"name":"currency1","type":"address","internalType":"Currency"},{"name":"fee","type":"uint24","internalType":"uint24"},{"name":"tickSpacing","type":"int24","internalType":"int24"},{"name":"hooks","type":"address","internalType":"contract IHooks"}]},{"name":"params","type":"tuple","internalType":"struct IPoolManager.ModifyLiquidityParams","components":[{"name":"tickLower","type":"int24","internalType":"int24"},{"name":"tickUpper","type":"int24","internalType":"int24"},{"name":"liquidityDelta","type":"int256","internalType":"int256"},{"name":"salt","type":"bytes32","internalType":"bytes32"}]},{"name":"hookData","type":"bytes","internalType":"bytes"}],"outputs":[{"name":"","type":"bytes4","internalType":"bytes4"}],"stateMutability":"nonpayable"},{"type":"function","name":"beforeSwap","inputs":[{"name":"sender","type":"address","internalType":"address"},{"name":"key","type":"tuple","internalType":"struct PoolKey","components":[{"name":"currency0","type":"address","internalType":"Currency"},{"name":"currency1","type":"address","internalType":"Currency"},{"name":"fee","type":"uint24","internalType":"uint24"},{"name":"tickSpacing","type":"int24","internalType":"int24"},{"name":"hooks","type":"address","internalType":"contract IHooks"}]},{"name":"params","type":"tuple","internalType":"struct IPoolManager.SwapParams","components":[{"name":"zeroForOne","type":"bool","internalType":"bool"},{"name":"amountSpecified","type":"int256","internalType":"int256"},{"name":"sqrtPriceLimitX96","type":"uint160","internalType":"uint160"}]},{"name":"hookData","type":"bytes","internalType":"bytes"}],"outputs":[{"name":"","type":"bytes4","internalType":"bytes4"},{"name":"","type":"int256","internalType":"BeforeSwapDelta"},{"name":"","type":"uint24","internalType":"uint24"}],"stateMutability":"nonpayable"},{"type":"function","name":"earlyExit","inputs":[],"outputs":[{"name":"","type":"bool","internalType":"bool"}],"stateMutability":"view"},{"type":"function","name":"endingTick","inputs":[],"outputs":[{"name":"","type":"int24","internalType":"int24"}],"stateMutability":"view"},{"type":"function","name":"endingTime","inputs":[],"outputs":[{"name":"","type":"uint256","internalType":"uint256"}],"stateMutability":"view"},{"type":"function","name":"epochLength","inputs":[],"outputs":[{"name":"","type":"uint256","internalType":"uint256"}],"stateMutability":"view"},{"type":"function","name":"gamma","inputs":[],"outputs":[{"name":"","type":"int24","internalType":"int24"}],"stateMutability":"view"},{"type":"function","name":"getHookPermissions","inputs":[],"outputs":[{"name":"","type":"tuple","internalType":"struct Hooks.Permissions","components":[{"name":"beforeInitialize","type":"bool","internalType":"bool"},{"name":"afterInitialize","type":"bool","internalType":"bool"},{"name":"beforeAddLiquidity","type":"bool","internalType":"bool"},{"name":"afterAddLiquidity","type":"bool","internalType":"bool"},{"name":"beforeRemoveLiquidity","type":"bool","internalType":"bool"},{"name":"afterRemoveLiquidity","type":"bool","internalType":"bool"},{"name":"beforeSwap","type":"bool","internalType":"bool"},{"name":"afterSwap","type":"bool","internalType":"bool"},{"name":"beforeDonate","type":"bool","internalType":"bool"},{"name":"afterDonate","type":"bool","internalType":"bool"},{"name":"beforeSwapReturnDelta","type":"bool","internalType":"bool"},{"name":"afterSwapReturnDelta","type":"bool","internalType":"bool"},{"name":"afterAddLiquidityReturnDelta","type":"bool","internalType":"bool"},{"name":"afterRemoveLiquidityReturnDelta","type":"bool","internalType":"bool"}]}],"stateMutability":"pure"},{"type":"function","name":"initialLpFee","inputs":[],"outputs":[{"name":"","type":"uint24","internalType":"uint24"}],"stateMutability":"view"},{"type":"function","name":"initializer","inputs":[],"outputs":[{"name":"","type":"address","internalType":"address"}],"stateMutability":"view"},{"type":"function","name":"insufficientProceeds","inputs":[],"outputs":[{"name":"","type":"bool","internalType":"bool"}],"stateMutability":"view"},{"type":"function","name":"isInitialized","inputs":[],"outputs":[{"name":"","type":"bool","internalType":"bool"}],"stateMutability":"view"},{"type":"function","name":"isToken0","inputs":[],"outputs":[{"name":"","type":"bool","internalType":"bool"}],"stateMutability":"view"},{"type":"function","name":"maximumProceeds","inputs":[],"outputs":[{"name":"","type":"uint256","internalType":"uint256"}],"stateMutability":"view"},{"type":"function","name":"migrate","inputs":[{"name":"recipient","type":"address","internalType":"address"}],"outputs":[{"name":"sqrtPriceX96","type":"uint160","internalType":"uint160"},{"name":"token0","type":"address","internalType":"address"},{"name":"fees0","type":"uint128","internalType":"uint128"},{"name":"balance0","type":"uint128","internalType":"uint128"},{"name":"token1","type":"address","internalType":"address"},{"name":"fees1","type":"uint128","internalType":"uint128"},{"name":"balance1","type":"uint128","internalType":"uint128"}],"stateMutability":"nonpayable"},{"type":"function","name":"minimumProceeds","inputs":[],"outputs":[{"name":"","type":"uint256","internalType":"uint256"}],"stateMutability":"view"},{"type":"function","name":"numPDSlugs","inputs":[],"outputs":[{"name":"","type":"uint256","internalType":"uint256"}],"stateMutability":"view"},{"type":"function","name":"numTokensToSell","inputs":[],"outputs":[{"name":"","type":"uint256","internalType":"uint256"}],"stateMutability":"view"},{"type":"function","name":"poolKey","inputs":[],"outputs":[{"name":"currency0","type":"address","internalType":"Currency"},{"name":"currency1","type":"address","internalType":"Currency"},{"name":"fee","type":"uint24","internalType":"uint24"},{"name":"tickSpacing","type":"int24","internalType":"int24"},{"name":"hooks","type":"address","internalType":"contract IHooks"}],"stateMutability":"view"},{"type":"function","name":"poolManager","inputs":[],"outputs":[{"name":"","type":"address","internalType":"contract IPoolManager"}],"stateMutability":"view"},{"type":"function","name":"positions","inputs":[{"name":"salt","type":"bytes32","internalType":"bytes32"}],"outputs":[{"name":"tickLower","type":"int24","internalType":"int24"},{"name":"tickUpper","type":"int24","internalType":"int24"},{"name":"liquidity","type":"uint128","internalType":"uint128"},{"name":"salt","type":"uint8","internalType":"uint8"}],"stateMutability":"view"},{"type":"function","name":"startingTick","inputs":[],"outputs":[{"name":"","type":"int24","internalType":"int24"}],"stateMutability":"view"},{"type":"function","name":"startingTime","inputs":[],"outputs":[{"name":"","type":"uint256","internalType":"uint256"}],"stateMutability":"view"},{"type":"function","name":"state","inputs":[],"outputs":[{"name":"lastEpoch","type":"uint40","internalType":"uint40"},{"name":"tickAccumulator","type":"int256","internalType":"int256"},{"name":"totalTokensSold","type":"uint256","internalType":"uint256"},{"name":"totalProceeds","type":"uint256","internalType":"uint256"},{"name":"totalTokensSoldLastEpoch","type":"uint256","internalType":"uint256"},{"name":"feesAccrued","type":"int256","internalType":"BalanceDelta"}],"stateMutability":"view"},{"type":"function","name":"unlockCallback","inputs":[{"name":"data","type":"bytes","internalType":"bytes"}],"outputs":[{"name":"","type":"bytes","internalType":"bytes"}],"stateMutability":"nonpayable"},{"type":"event","name":"EarlyExit","inputs":[{"name":"epoch","type":"uint256","indexed":false,"internalType":"uint256"}],"anonymous":false},{"type":"event","name":"InsufficientProceeds","inputs":[],"anonymous":false},{"type":"event","name":"Rebalance","inputs":[{"name":"currentTick","type":"int24","indexed":false,"internalType":"int24"},{"name":"tickLower","type":"int24","indexed":false,"internalType":"int24"},{"name":"tickUpper","type":"int24","indexed":false,"internalType":"int24"},{"name":"epoch","type":"uint256","indexed":false,"internalType":"uint256"}],"anonymous":false},{"type":"event","name":"Swap","inputs":[{"name":"currentTick","type":"int24","indexed":false,"internalType":"int24"},{"name":"totalProceeds","type":"uint256","indexed":false,"internalType":"uint256"},{"name":"totalTokensSold","type":"uint256","indexed":false,"internalType":"uint256"}],"anonymous":false},{"type":"error","name":"AlreadyInitialized","inputs":[]},{"type":"error","name":"CannotAddLiquidity","inputs":[]},{"type":"error","name":"CannotDonate","inputs":[]},{"type":"error","name":"CannotMigrate","inputs":[]},{"type":"error","name":"CannotSwapBeforeStartTime","inputs":[]},{"type":"error","name":"HookNotImplemented","inputs":[]},{"type":"error","name":"InvalidEpochLength","inputs":[]},{"type":"error","name":"InvalidGamma","inputs":[]},{"type":"error","name":"InvalidNumPDSlugs","inputs":[]},{"type":"error","name":"InvalidProceedLimits","inputs":[]},{"type":"error","name":"InvalidStartTime","inputs":[]},{"type":"error","name":"InvalidSwapAfterMaturityInsufficientProceeds","inputs":[]},{"type":"error","name":"InvalidSwapAfterMaturitySufficientProceeds","inputs":[]},{"type":"error","name":"InvalidTickRange","inputs":[]},{"type":"error","name":"InvalidTickSpacing","inputs":[]},{"type":"error","name":"InvalidTimeRange","inputs":[]},{"type":"error","name":"MaximumProceedsReached","inputs":[]},{"type":"error","name":"NotPoolManager","inputs":[]},{"type":"error","name":"SenderNotInitializer","inputs":[]},{"type":"error","name":"SenderNotPoolManager","inputs":[]},{"type":"error","name":"SwapBelowRange","inputs":[]}],"bytecode":{"object":"0x60a06040523461057b57604051601f615e1138819003918201601f19168301916001600160401b0383118484101761057f578084926101c09460405283398101031261057b5780516001600160a01b038116810361057b5760208201516040830151906060840151608085015160a08601519061007e60c088016105b3565b9161008b60e089016105b3565b91610100890151946100a06101208b016105b3565b976101408b0151978815988915810361057b576101608d01516101808e01516001600160a01b0381169e919d91908f0361057b576101a001519062ffffff821680920361057b576080525f6101a06100f6610593565b8281528260208201528260408201528260608201528260808201528260a08201528260c08201528260e0820152826101008201528261012082015282610140820152826101608201528261018082015201525f6101a0610154610593565b6001815260016020820152600160408201528260608201528260808201528260a0820152600160c0820152600160e082015260016101008201528261012082015282610140820152826101608201528261018082015201526120003016151560011480159061056a575b8015610559575b801561054c575b801561053f575b8015610532575b8015610522575b8015610512575b8015610502575b80156104f6575b80156104ea575b80156104de575b80156104d2575b80156104c6575b6104b35762ffffff1960165416176016558442116104a4578660020b8860020b91818303610463575b5050508484101561045457838503858111610440578a60020b5f811380159061042b575b61041c578915610408578982066103f9578c156103eb57600f8d116103eb578484116103dc5761029861029d928b81046017558b6105c1565b610658565b628000008110156103cf5762ffffff19601854169062ffffff1617601855600d55600e55600f5560105560115562ffffff6012549160181b65ffffff0000001692169065ffffffffffff1916171760125560135562ffffff63ff000000601454921560181b1692169063ffffffff1916171760145560155560018060a01b0319600c541617600c5560405161573d90816106d48239608051818181601c01528181610205015281816102a80152818161045c0152818161050c0152818161098701528181610a1e01528181610af501528181610b9201528181610c5a01528181610e8301528181610f3a0152818161103d015281816110b201528181611d1301528181611dcb0152818161214501528181613e2001528181613eb401528181614251015281816142c00152614e2f0152f35b6335278d125f526004601cfd5b638cc99b7b60e01b5f5260045ffd5b6287e39960e61b5f5260045ffd5b6388ac089760e01b5f5260045ffd5b634e487b7160e01b5f52601260045260245ffd5b6312469eb560e11b5f5260045ffd5b5061043a81610298848d6105c1565b1561025f565b634e487b7160e01b5f52601160045260245ffd5b63536a71af60e01b5f5260045ffd5b8061049b575b610483578a9182610491575b5050610483575f808061023b565b6264847d60e41b5f5260045ffd5b1390505f80610475565b50808212610469565b632ca4094f60e21b5f5260045ffd5b630732d7b560e51b5f523060045260245ffd5b50600130161515610212565b5060023016151561020b565b50600430161515610204565b506008301615156101fd565b506010301615156101f6565b50602030161515600114156101ef565b50604030161515600114156101e8565b50608030161515600114156101e1565b50610100301615156101da565b50610200301615156101d3565b50610400301615156101cc565b5061080030161515600114156101c5565b5061100030161515600114156101be565b5f80fd5b634e487b7160e01b5f52604160045260245ffd5b604051906101c082016001600160401b0381118382101761057f57604052565b51908160020b820361057b57565b90670de0b6b3a76400008202905f19670de0b6b3a764000084099282808510940393808503948584111561057b571461065157670de0b6b3a764000082910981805f03168092046002816003021880820260020302808202600203028082026002030280820260020302808202600203028091026002030293600183805f03040190848311900302920304170290565b5091500490565b808202905f1983820990828083109203918083039283670de0b6b3a7640000111561057b57146106c2577faccb18165bd6fe31ae1cf318dc5b51eee0e1ba569b88cd74c1773b91fac1066993670de0b6b3a7640000910990828211900360ee1b910360121c170290565b5050670de0b6b3a76400009150049056fe608080604052600436101561005b575b50361561001a575f80fd5b7f00000000000000000000000000000000000000000000000000000000000000006001600160a01b0316330361004c57005b6393c866c160e01b5f5260045ffd5b5f905f3560e01c908163182148ef146111155750806318cb1700146110f357806321d0ee701461109f578063259982e51461102a578063392e53cd1461100857806339518b5e14610feb578063514ea4bf14610f96578063575e24b414610ee357806357d775f814610ec65780636c2bbe7e14610e705780636c47a6c314610e535780636fe7e6eb14610c19578063897479cb14610bfb57806390ebab0a14610bdd57806391dd734614610b5e5780639ce110d714610b355780639f063efc14610ade578063a4dee15514610ab9578063b137392914610a98578063b356603014610a74578063b47b2fb1146109c6578063b6a8b0fa14610970578063c19d93fb14610921578063c4e833ce146107b6578063c70dfb4f14610795578063ce5494bb146104cb578063d0c52e21146104a9578063d65b4cb91461048b578063dc4c90d314610446578063dc98354e14610276578063dcf93f3214610250578063e1b4af69146101ee5763ee4644300361000f57346101eb57806003193601126101eb576020600d54604051908152f35b80fd5b50346101eb57600490610200366112dc565b5050507f00000000000000000000000000000000000000000000000000000000000000006001600160a01b03163303925061024491505057630a85dc2960e01b8152fd5b63570c108560e11b8152fd5b50346101eb57806003193601126101eb57602060ff60145460181c166040519015158152f35b50346101eb5760e03660031901126101eb5761029061116b565b5060a03660231901126101eb576102a561128e565b507f00000000000000000000000000000000000000000000000000000000000000006001600160a01b031633036104375760085460ff81166104295760ff19166001176008556001600160a01b03602435908116908181036104255750600980546001600160a01b0319169190911790556044356001600160a01b038116908181036104255750600a80546001600160a01b03191691909117905560643562ffffff8116810361042157600a5461035a612048565b60b81b62ffffff60b81b169162ffffff60a01b9060a01b169065ffffffffffff60a01b19161717600a5560a43560018060a01b03811680910361042157600b80546001600160a01b031916919091179055601e6103b5612048565b60020b136104125760145460020b6103cb612048565b60020b9081156103fe570760020b6103ef57604051636e4c1aa760e11b8152602090f35b6312469eb560e11b8152600490fd5b634e487b7160e01b83526012600452602483fd5b63013840ad60e51b8152600490fd5b5080fd5b8280fd5b62dc149f60e41b8252600482fd5b63570c108560e11b8152600490fd5b50346101eb57806003193601126101eb576040517f00000000000000000000000000000000000000000000000000000000000000006001600160a01b03168152602090f35b50346101eb57806003193601126101eb576020600f54604051908152f35b50346101eb57806003193601126101eb5760ff60209154166040519015158152f35b50346101eb5760203660031901126101eb576104e561116b565b600c546001600160a01b031633036107865760ff825460081c161580610765575b610756577f000000000000000000000000000000000000000000000000000000000000000061059d8361057561058360405161054181611333565b610549611f24565b815260018060a01b03871660208201528360408201526001606082015260405192839160208301611f71565b03601f1981018352826113b4565b604051809381926348c8949160e01b8352600483016112b2565b0381836001600160a01b0387165af190811561074b57916105d785926105e2959460e09791610729575b50602080825183010191016114d8565b600695919554613523565b9161064160018060a01b0360095416926106306105fe8561481a565b948761061f8761061760018060a01b03600a541661481a565b9a8b9461485c565b600a546001600160a01b031661485c565b60a061063a611f24565b209061499f565b5050600954600a5492976001600160a01b039182169791909316946106879250610678906001600160801b03608086901d16611472565b926001600160801b0316611472565b906001600160801b0381111561071a57506001600160801b03915b506001600160801b0381111561070b57506001600160801b03935b604080516001600160a01b0397909716875260208701919091526001600160801b03608085811d821692880192909252918216606087015285019190915290811660a08401521660c0820152f35b6001600160801b0316936106bd565b6001600160801b0316916106a2565b61074591503d8086833e61073d81836113b4565b810190611fb2565b5f6105c7565b6040513d86823e3d90fd5b63051a2a5560e51b8252600482fd5b50600454600e5411158061077a575b15610506565b50601154421015610774565b638341a67960e01b8252600482fd5b50346101eb57806003193601126101eb57602060125460020b604051908152f35b50346101eb57806003193601126101eb576020816101c0926101a06040516107dd81611362565b82815282858201528260408201528260608201528260808201528260a08201528260c08201528260e0820152826101008201528261012082015282610140820152826101608201528261018082015201528060405161083b81611362565b60018152838101600181526040820160018152606083018481526080840185815260a0850186815260c08601906001825260e087019260018452610100880194600186526101208901968a88526101408a01988b8a526101a06101608c019b8d8d5261018081019d8e52019c8d526040519d8e916001835251151591015251151560408d015251151560608c015251151560808b015251151560a08a015251151560c089015251151560e08801525115156101008701525115156101208601525115156101408501525115156101608401525115156101808301525115156101a0820152f35b50346101eb57806003193601126101eb5760c064ffffffffff600154166002546003546004546005549160065493604051958652602086015260408501526060840152608083015260a0820152f35b50346101eb57600490610982366112dc565b5050507f00000000000000000000000000000000000000000000000000000000000000006001600160a01b0316330392506102449150505763567d91d160e01b8152fd5b50346101eb576101603660031901126101eb576109e161116b565b5060a03660231901126101eb5760603660c31901126101eb57610144356001600160401b03811161042157610a1a903690600401611195565b50507f00000000000000000000000000000000000000000000000000000000000000006001600160a01b03163303610437576040610a5a610124356142a3565b82516001600160e01b03199092168252600f0b6020820152f35b50346101eb57806003193601126101eb57602060125460181c60020b604051908152f35b50346101eb57806003193601126101eb57602060145460020b604051908152f35b50346101eb57806003193601126101eb5760ff6020915460081c166040519015158152f35b50346101eb57600490610af036611225565b5050507f00000000000000000000000000000000000000000000000000000000000000006001600160a01b0316330393506102449250505057630a85dc2960e01b8152fd5b50346101eb57806003193601126101eb57600c546040516001600160a01b039091168152602090f35b50346101eb5760203660031901126101eb576004356001600160401b03811161042157610b8f903690600401611195565b917f00000000000000000000000000000000000000000000000000000000000000006001600160a01b0316330361043757610bd9610bcd8484611671565b604051918291826112b2565b0390f35b50346101eb57806003193601126101eb576020601554604051908152f35b50346101eb57806003193601126101eb576020600e54604051908152f35b5034610e4057610100366003190112610e4057610c3461116b565b60a0366023190112610e4057610c4861128e565b5060e435908160020b809203610e40577f00000000000000000000000000000000000000000000000000000000000000006001600160a01b03169133839003610e445762ffffff6016541691833b15610e4057604051635275965160e01b815292602435906001600160a01b038216808303610e40576004860152604435946001600160a01b038616808703610e4057602482015260643562ffffff8116808203610e40576044830152608435918260020b808403610e4057606482015260a435936001600160a01b038516808603610e4057608483015260a48201525f8160c481838d5af18015610e3557610e07575b509488979461057594610da6948a9994610dc29960405196610d5a88611333565b60405194610d678661137e565b85526020850152604084015260608301526080820152835260018060a01b03166020830152604082015285606082015260405192839160208301611f71565b6040519485809481936348c8949160e01b8352600483016112b2565b03925af18015610dfc57610de3575b604051636fe7e6eb60e01b8152602090f35b610df6913d8091833e61073d81836113b4565b5f610dd1565b6040513d84823e3d90fd5b610da69399509461057594610e245f610dc299949a959b986113b4565b5f9a94509450949791969095610d39565b6040513d5f823e3d90fd5b5f80fd5b63570c108560e11b5f5260045ffd5b34610e40575f366003190112610e40576020601154604051908152f35b34610e4057610e7e36611225565b5050507f00000000000000000000000000000000000000000000000000000000000000006001600160a01b031633039350610e449250505057630a85dc2960e01b5f5260045ffd5b34610e40575f366003190112610e40576020601354604051908152f35b34610e4057610140366003190112610e4057610efd61116b565b5060a0366023190112610e405760603660c3190112610e4057610124356001600160401b038111610e4057610f36903690600401611195565b50507f00000000000000000000000000000000000000000000000000000000000000006001600160a01b03163303610e4457606062ffffff610f76612089565b906040939293519363ffffffff60e01b1684526020840152166040820152f35b34610e40576020366003190112610e40576004355f526007602052608060405f205460ff604051918060020b83528060181c60020b6020840152600180851b038160301c16604084015260b01c166060820152f35b34610e40575f366003190112610e40576020601054604051908152f35b34610e40575f366003190112610e4057602060ff600854166040519015158152f35b34610e4057611038366111c2565b5050507f00000000000000000000000000000000000000000000000000000000000000006001600160a01b031633039050610e4457306001600160a01b03909116036110905760405163259982e560e01b8152602090f35b636d1ed89b60e01b5f5260045ffd5b34610e40576110ad366111c2565b5050507f00000000000000000000000000000000000000000000000000000000000000006001600160a01b031633039150610e44905057630a85dc2960e01b5f5260045ffd5b34610e40575f366003190112610e4057602062ffffff60165416604051908152f35b34610e40575f366003190112610e4057600954600a54600b546001600160a01b039283168452818316602085015260a082811c62ffffff16604086015260b89290921c60020b6060850152909116608083015290f35b600435906001600160a01b0382168203610e4057565b35906001600160a01b0382168203610e4057565b9181601f84011215610e40578235916001600160401b038311610e405760208381860195010111610e4057565b90610160600319830112610e40576004356001600160a01b0381168103610e40579160a0602319820112610e4057602491608060c319830112610e405760c49161014435906001600160401b038211610e405761122191600401611195565b9091565b906101a0600319830112610e40576004356001600160a01b0381168103610e40579160a0602319820112610e4057602491608060c319830112610e405760c4916101443591610164359161018435906001600160401b038211610e405761122191600401611195565b60c435906001600160a01b0382168203610e4057565b35908160020b8203610e4057565b602060409281835280519182918282860152018484015e5f828201840152601f01601f1916010190565b610120600319820112610e40576004356001600160a01b0381168103610e40579160a0602319830112610e405760249160c4359160e4359161010435906001600160401b038211610e405761122191600401611195565b608081019081106001600160401b0382111761134e57604052565b634e487b7160e01b5f52604160045260245ffd5b6101c081019081106001600160401b0382111761134e57604052565b60a081019081106001600160401b0382111761134e57604052565b606081019081106001600160401b0382111761134e57604052565b601f909101601f19168101906001600160401b0382119082101761134e57604052565b359062ffffff82168203610e4057565b91908260a0910312610e40576040516113ff8161137e565b608061144b81839561141081611181565b855261141e60208201611181565b602086015261142f604082016113d7565b6040860152611440606082016112a4565b606086015201611181565b910152565b600201908160021161145e57565b634e487b7160e01b5f52601160045260245ffd5b9190820180921161145e57565b9060405161148c81611333565b9154600281810b8452601882901c900b6020840152603081901c6001600160801b0316604084015260b01c60ff166060830152565b600f0b60016001607f1b0319811461145e575f0390565b9190826040910312610e40576020825192015190565b80516001600160a01b03908116835260208083015182169084015260408083015162ffffff169084015260608083015160020b9084015260809182015116910152565b9061016092611542836060936114ee565b805160020b60a0840152602081015160020b60c0840152604081015160e084015201516101008201526101406101208201525f6101408201520190565b6001600160a01b03918216815291166020820152604081019190915260600190565b9190820391821161145e57565b6001600160401b03811161134e5760051b60200190565b906115cf826115ae565b6115dc60405191826113b4565b82815280926115ed601f19916115ae565b01905f5b8281106115fd57505050565b60209060405161160c81611333565b5f81525f838201525f60408201525f6060820152828285010152016115f1565b8051156116395760200190565b634e487b7160e01b5f52603260045260245ffd5b8051600110156116395760400190565b80518210156116395760209160051b010190565b919082015f61010084830312610e40576116976040519261169184611333565b856113e7565b938483526116a760a08201611181565b80602085015260e06116bb60c084016112a4565b92836040870152013580151594858203610e40576060015260018060a01b03169060020b92611c355750600164ffffffffff1981541617600155606084019261171e845160020b61171961170e856150fb565b60125460020b61206b565b615133565b6014549060ff8260181c165f14611c225761173c9160020b9061206b565b945b611747846135fe565b611750856135fe565b956040519561175e87611399565b808752602087018181526118ba604089019a888c526118b2600d549561178261392b565b956117ea8c6117e56117dc6117bd6117b46117ab6117a66117a1614a58565b6150a7565b613949565b60135490615085565b601054906150c3565b6117d66117cd60105480936115a1565b916011546115a1565b90615261565b600d54906152f8565b61395a565b8c929083811315611c135761184d9293508981115f14611c0e5750885b928d60185460020b835160020b8082135f14611c065750905b50818a5260145460181c60ff1615611bf7576118419150895160020b61206b565b905b5160020b90615133565b60020b60208701525b855160020b966020870197885160020b14155f14611bec5760ff60145460181c166118a7836118888a5160020b6135fe565b8b516001600160801b039491906118a19060020b6135fe565b916151fa565b1660408801526115a1565b9084886139d1565b996118cd6118c88c51611450565b6115c5565b985160020b915160020b9060018060801b0390511690604051926118f084611333565b8352602083015260408201526001606082015261190c8861162c565b526119168761162c565b50805160020b915160020b90604060018060801b0391015116906040519261193d84611333565b835260208301526040820152600260608201526119598661164d565b526119638561164d565b50835b8751811015611a1657611979818961165d565b515160020b602061198a838b61165d565b51015160020b6001600160801b0360406119a4858d61165d565b51015116836003019182600311611a02576119fb92600195949260ff92604051946119ce86611333565b8552602085015260408401521660608201526119e983611450565b906119f4828b61165d565b528861165d565b5001611966565b634e487b7160e01b89526011600452602489fd5b50611a249293969585613d1f565b611a2d8261162c565b516001855260076020908152604080872083518154938501519285015160609095015160189390931b65ffffff000000166001600160b81b031990941662ffffff909116179290921760309390931b600160301b600160b01b03169290921760b09290921b60ff60b01b16919091179055611aa78261164d565b516002855260076020908152604080872083518154938501519285015160609095015160189390931b65ffffff000000166001600160b81b031990941662ffffff909116179290921760309390931b600160301b600160b01b03169290921760b09290921b60ff60b01b16919091179055835b8351811015611bcc57611b35611b2f82611450565b8461165d565b518160030180600311611bb857865260076020908152604080882083518154938501519285015160609095015160189390931b65ffffff000000166001600160b81b031990941662ffffff909116179290921760309390931b600160301b600160b01b03169290921760b09290921b60ff60b01b16919091179055600101611b1a565b634e487b7160e01b87526011600452602487fd5b509291505060405190611be06020836113b4565b81525f36602083013790565b8b60408801526115a1565b611c00916135e1565b90611843565b905090611820565b611807565b50508087526020870152611856565b611c2f9160020b906135e1565b9461173e565b925f9250829160015b6015546003018060031161145e57811015611dc357805f526007602052611c6760405f2061147f565b60408101516001600160801b031680611c85575b5050600101611c3e565b611d0e9160409160ff6014999598995460181c1691825f14611db557805160020b925b15611da05760ff6060611cca611cc5602085015160020b95613504565b6114c1565b9201511691845193611cdb85611333565b60020b845260020b6020840152600f0b838301526060820152815180938192632d35e7ed60e11b83528c60048401611531565b03815f7f00000000000000000000000000000000000000000000000000000000000000006001600160a01b03165af1918215610e3557600192611d65925f905f92611d6d575b50611d5f9192613523565b96613523565b93905f611c7b565b611d5f9250611d93915060403d8111611d99575b611d8b81836113b4565b8101906114d8565b91611d54565b503d611d81565b60ff6060611cca611cc5845160020b95613504565b602081015160020b92611ca8565b5091929390947f000000000000000000000000000000000000000000000000000000000000000091611dff60018060a01b038351163085613565565b926020830192611e1960018060a01b038551163084613565565b945f8113611ebd575b5050848413611e51575b5050505050604051916020830152604082015260408152611e4e6060826113b4565b90565b91516001600160a01b039283169216823b15611eb95791611e8d939185809460405196879586948593630b0d9c0960e01b85526004850161157f565b03925af18015610dfc57611ea4575b808080611e2c565b611eaf8280926113b4565b6101eb5780611e9c565b8480fd5b90516001600160a01b0383811692911690823b15610e4057611efa92855f809460405196879586948593630b0d9c0960e01b85526004850161157f565b03925af18015610e3557611f0f575b80611e22565b611f1c9195505f906113b4565b5f935f611f09565b60405190611f318261137e565b6009546001600160a01b039081168352600a54808216602085015260a081901c62ffffff16604085015260b81c60020b6060840152600b54166080830152565b91909160e06060610100830194611f898482516114ee565b60208101516001600160a01b031660a0850152604081015160020b60c085015201511515910152565b602081830312610e40578051906001600160401b038211610e40570181601f82011215610e40578051906001600160401b03821161134e5760405192612002601f8401601f1916602001856113b4565b82845260208383010111610e4057815f9260208093018386015e8301015290565b600f91820b910b019060016001607f1b0319821260016001607f1b0383131761145e57565b6084358060020b8103610e405790565b60020b627fffff19811461145e575f0390565b9060020b9060020b0190627fffff198212627fffff83131761145e57565b5f905f549060ff8260081c166134f55760105442106134e6576120aa614a58565b64ffffffffff6001541610156134d5575f91601154421015806134ca575b613115575b509060ff5f5416155f146130a8576120e3614a58565b926001546120f864ffffffffff8216866115a1565b64ffffffffff1990911664ffffffffff86161760015560035460025f526007602052926121315f8051602061571183398151915261147f565b9461216960a06121423660246113e7565b207f000000000000000000000000000000000000000000000000000000000000000061499f565b5050509661217688614a8c565b608435978860020b808a14159283610e40578a61219291615133565b5f9760018111612de4575b506121a6614a58565b898112801516612dd0576117dc6117bd6117b46117ab6121c594613949565b916121d26005548c61395a565b8b6005558a848d1115911280612dc9575b15612c025750505050612206612233915160020b96612200615560565b906150c3565b955b61222d670de0b6b3a7640000612220896002546150c3565b9880612bf9575b056150fb565b9061206b565b90612bf5578761224291615133565b9061225e8861171961170e670de0b6b3a76400005f99056150fb565b9760145460ff8160181c165f14612be25761227c9060020b8a61206b565b955b8960ff60145460181c16809b811580612bd2575b15612b9657505050612b92576122a8908361206b565b945b6122b3836135fe565b986122bd876135fe565b908915612b895715612ad75760016122d68a8c8461564e565b91818060a01b038c1690828060a01b0316038060ff1d9081011891818060801b03166123028382615373565b928260601b9109151516015b995b60155461231f6118c882611450565b9060018a52600760205261233560408b2061147f565b61233e8361162c565b526123488261162c565b5060028a52600760205261235e60408b2061147f565b6123678361164d565b526123718261164d565b50895b818110612a8f5750506123929061238c3660246113e7565b90614d45565b60145460181c60ff16919082156129f7576044356001600160a01b03811681036129f3576123d66123c7826123e8935061481a565b6001600160801b038516611472565b6006546001600160801b0316906115a1565b916024356001600160a01b03811681036129ef5761243592916124209161240e9061481a565b9060801d6001600160801b0316611472565b60809190911d6001600160801b0316906115a1565b915b6124423660246113e7565b9061244b61392b565b9e8361298557505050508460020b808d5260208d01528860408d01525b60408c018051909a906001600160801b031615612976575b61258b6125796124913660246113e7565b8c6124b861249d61392b565b956117e56117dc6117bd6117b46117ab6117a66117a1614a58565b9181928281135f146129625791925061251a918781111561295d5750865b92606060185460020b920191825160020b8082135f1461295657505b8c60020b9182895260ff60145460181c1690505f14611bf7576118419150875160020b61206b565b60020b60208501525b835160020b946020850195865160020b14155f1461294b5760ff60145460181c1661256e83612555885160020b6135fe565b89516001600160801b039491906118a19060020b6135fe565b1660408601526115a1565b85836125863660246113e7565b6139d1565b9c61259a6118c8601554611450565b9b6020825160020b92015160020b9060018060801b0390511690604051926125c184611333565b835260208301526040820152600160608201526125dd8c61162c565b526125e78b61162c565b50805160020b915160020b90604060018060801b0391015116906040519261260e84611333565b8352602083015260408201526002606082015261262a8a61164d565b526126348961164d565b50875b8b518110156126e8578b602061265c83612651818561165d565b515160020b9361165d565b51015160020b8d60406126768560018060801b039361165d565b510151168360030191826003116126d4579260ff6126cd938f9360019796604051946126a186611333565b8552602085015260408401521660608201526126c66126bf85611450565b809361165d565b528c61165d565b5001612637565b634e487b7160e01b8d52601160045260248dfd5b50612708919293949596999a979a6127013660246113e7565b918a613d1f565b6127118761162c565b5160018a52600760209081526040808c2083518154938501519285015160609095015160189390931b65ffffff000000166001600160b81b031990941662ffffff909116179290921760309390931b600160301b600160b01b03169290921760b09290921b60ff60b01b1691909117905561278b8761164d565b5160028a52600760209081526040808c2083518154938501519285015160609095015160189390931b65ffffff000000166001600160b81b031990941662ffffff909116179290921760309390931b600160301b600160b01b03169290921760b09290921b60ff60b01b16919091179055885b6015548110156128f1578651811061284857806003018060031161283457906001918b5260076020528a60408120555b016127fe565b634e487b7160e01b8b52601160045260248bfd5b61285a61285482611450565b8961165d565b5181600301806003116128dd578b52600760209081526040808d2083518154938501519285015160609095015160189390931b65ffffff000000166001600160b81b031990941662ffffff909116179290921760309390931b600160301b600160b01b03169290921760b09290921b60ff60b01b1691909117905560019061282e565b634e487b7160e01b8c52601160045260248cfd5b5090919295507f223157ec47d7bd04fa3ed10c0a8adb38faf97b51ec856a777425a2e39253bd739450608093966040519360020b845260020b602084015260020b60408301526060820152a15b6315d7892d60e21b929190565b8d60408601526115a1565b90506124f2565b6124d6565b5050508860020b8085526020850152612523565b60208d015160020b8d52612480565b83949f929381115f146129a7575050508a6129a1928792614eef565b9a612468565b909250819e93506129e4918b60020b815260208960020b9101526129ca8b6135fe565b6001600160801b0393906129dd8a6135fe565b91156151fa565b1660408d0152612468565b8c80fd5b8b80fd5b6024356001600160a01b03811681036129f357612a2e612a1b82612a43935061481a565b608085901d6001600160801b0316611472565b60065460801d6001600160801b0316906115a1565b916044356001600160a01b03811681036129ef57612a899291612a7891612a699061481a565b906001600160801b0316611472565b6001600160801b03909116906115a1565b91612437565b80600301806003116128dd57906001918c526007602052612ad060408d20612abf612ab984611450565b9161147f565b612ac9828861165d565b528561165d565b5001612374565b612ae2898b8361560b565b8a826001600160a01b0380831690821611612b7e575b506001600160a01b038316918215612b725760601b600160601b600160e01b0316926001600160a01b03828116929190910316612b368282866154ab565b938215612b5e5709612b50575b808206151591040161230e565b906001019081612b43578880fd5b634e487b7160e01b8c52601260045260248cfd5b62bfc9218b526004601cfd5b8c935090505f612af8565b50508699612310565b8680fd5b91989392509081612bc1575b50612bae575b506122aa565b612bba919650836135e1565b945f612ba8565b905060020b8460020b13155f612ba2565b508060020b8760020b1215612292565b612bef9060020b8a6135e1565b9561227e565b8580fd5b89600255612227565b9893909192985f14612c7757505082612c735789612c1f91615133565b95612c32612c2b615560565b918a615261565b670de0b6b3a76400000390670de0b6b3a76400008211611a025791670de0b6b3a7640000612c66612c6d9361223395615085565b05906150c3565b95612208565b8780fd5b91909750612c9a60125460020b670de0b6b3a76400006002540560020b9061206b565b9760185460020b9085612dc557811315612dba57905b6014549260ff8460181c1692835f14612da757612cd0915160020b61206b565b985b89866129f3578d612ce291615133565b93612cef886017546115a1565b918415612d9557612d039160020b9061206b565b601554821015612d7c57506003018060031161283457612c6d9361223395936122009360408e612d589581526007602052205460181c60020b915b15612d67578160020b8160020b135f14612d6057506135e1565b60020b615061565b90506135e1565b8160020b8160020b125f14612d6057506135e1565b612d58915093612233959361220093612c6d9691612d3e565b612da29160020b906135e1565b612d03565b612db4915160020b6135e1565b98612cd2565b505f93508a90612cb0565b8a80fd5b50806121e3565b634e487b7160e01b8a52601160045260248afd5b612df36005999299548c61395a565b5f19820191821161145e575f612e10612e0b84613d0f565b6151da565b8d11159112806130a1575b15612efe575050612e2e90612200615560565b965b612e38614a58565b600119818101918b13801591831291821691151617612dd0576117dc6117bd6117b46117ab612e6694613949565b8a1080612e79575b50896005555f61219d565b9b979a969492909593916001199b8a9d60015b15612ecc575b508a5f198f146128dd579c9d9b9c9a9b6001019a600160ff1b8f146126d4579c9d5f19019c8e612ec18f6151da565b11909e9c9b9e612e8c565b15612ed7575f612e92565b90929496989c612ef7929496989c5061220090612ef2615560565b615085565b965f612e6e565b15612f5757612f20612f1a612e0b612f14615560565b93613d0f565b8c615261565b670de0b6b3a76400000390670de0b6b3a7640000821161283457612c66612f519392670de0b6b3a764000092615085565b96612e30565b50509650949050612f7d60125460020b670de0b6b3a76400006002540560020b9061206b565b9460185460020b915f928881135f14613097575b6014549760ff8960181c1691825f1461308457612fb290855160020b61206b565b85610e40578c612fc191615133565b98612fce876017546115a1565b91831561307257612fe29160020b9061206b565b6015548210156130615750600301908160031161145e5761303392612d58925f52600760205260405f205460181c60020b915b15613043578160020b8160020b135f1461303c57505b975b886135e1565b965f9796612e30565b905061302b565b8160020b8160020b125f1461305a57505b9761302d565b9050613054565b612d58929150926130339391613015565b61307f9160020b906135e1565b612fe2565b61309290855160020b6135e1565b612fb2565b505f925089612f91565b5080612e1b565b5060ff60145460181c1680806130fe575b81156130de575b506130cf57624000009061293e565b63016ccb0760e01b5f5260045ffd5b905015806130ed575b5f6130c0565b5060c43580151581146130e7575f80fd5b905060c43580159081158103610e405750906130b9565b600454600e5411156134bb5760019060ff1916175f557fe8775e4a58023f399765c3455b45eebcc45ad6b99607a1163f02e1318430970c5f80a161316a61316260a06121423660246113e7565b505050614a8c565b6015546131796118c882611450565b60015f526007602052906131ac7fb39221ace053465ec3453ce2b36430bd138b997ecea25c1043da0c366812b82861147f565b6131b58361162c565b526131bf8261162c565b5060025f5260076020526131df5f8051602061571183398151915261147f565b6131e88361164d565b526131f28261164d565b505f5b81811061348a57505061320d9061238c3660246113e7565b5060145460181c60ff1690811561343f576044356001600160a01b0381168103610e4057613278918491613262906001600160801b039061324d9061481a565b16600f0b60018060801b0392600f0b90612023565b165b600354906132733660246113e7565b614eef565b9060408051929061328981856113b4565b60018452601f19015f5b818110613410575050805160020b6020820191825160020b90604060018060801b039101511690604051926132c784611333565b835260208301526040820152600160608201526132e38461162c565b526132ed8361162c565b505160020b90156133e757608435928360020b8403610e405761332a61332461331f61333d948761334298509061206b565b6135fe565b916135fe565b906133363660246113e7565b9184613d1f565b61162c565b5160015f52600760205260405f209080519082549165ffffff000000602083015160181b91600160301b600160b01b03604085015160301b1693606060ff60b01b91015160b01b169462ffffff60ff60b01b1992169060018060b01b0319161716911617171790555f5b6015546001810180911161145e578110156133e057806133cd600192611450565b5f5260076020525f6040812055016133ac565b505f6120cd565b608435928360020b8403610e405761332a61332461331f61333d9461222d886133429950612058565b60209060405161341f81611333565b5f81525f838201525f60408201525f606082015282828801015201613293565b6024356001600160a01b0381168103610e4057613278918491613484906001600160801b039061346e9061481a565b6001600160801b039360801d9116600f0b612023565b16613264565b80600301908160031161145e576001915f5260076020526134b460405f20612abf612ab984611450565b50016131f5565b631ed9bcf960e01b5f5260045ffd5b5060ff8116156120c8565b6315d7892d60e21b92505f91508190565b630fc95b4360e01b5f5260045ffd5b636fce6c3960e01b5f5260045ffd5b6001607f1b81101561351657600f0b90565b6335278d125f526004601cfd5b613546906135388360801d8260801d016150de565b92600f0b90600f0b016150de565b60018060801b03169060801b1790565b90816020910312610e40575190565b6001600160a01b039182165f9081529282166020908152604093849020935163789add5560e11b815260048101949094529183916024918391165afa908115610e35575f916135b2575090565b90506020813d6020116135d9575b816135cd602093836113b4565b81010312610e40575190565b3d91506135c0565b600291820b910b0390627fffff198212627fffff83131761145e57565b60020b908160ff1d82810118620d89e881116139185763ffffffff9192600182167001fffcb933bd6fad37aa2d162d1a59400102600160801b1891600281166138fc575b600481166138e0575b600881166138c4575b601081166138a8575b6020811661388c575b60408116613870575b60808116613854575b6101008116613838575b610200811661381c575b6104008116613800575b61080081166137e4575b61100081166137c8575b61200081166137ac575b6140008116613790575b6180008116613774575b620100008116613758575b62020000811661373d575b620400008116613722575b6208000016613709575b5f12613701575b0160201c90565b5f19046136fa565b6b048a170391f7dc42444e8fa290910260801c906136f3565b6d2216e584f5fa1ea926041bedfe9890920260801c916136e9565b916e5d6af8dedb81196699c329225ee6040260801c916136de565b916f09aa508b5b7a84e1c677de54f3e99bc90260801c916136d3565b916f31be135f97d08fd981231505542fcfa60260801c916136c8565b916f70d869a156d2a1b890bb3df62baf32f70260801c916136be565b916fa9f746462d870fdf8a65dc1f90e061e50260801c916136b4565b916fd097f3bdfd2022b8845ad8f792aa58250260801c916136aa565b916fe7159475a2c29b7443b29c7fa6e889d90260801c916136a0565b916ff3392b0822b70005940c7a398e4b70f30260801c91613696565b916ff987a7253ac413176f2b074cf7815e540260801c9161368c565b916ffcbe86c7900a88aedcffc83b479aa3a40260801c91613682565b916ffe5dee046a99a2a811c461f1969c30530260801c91613678565b916fff2ea16466c96a3843ec78b326b528610260801c9161366f565b916fff973b41fa98c081472e6896dfb254c00260801c91613666565b916fffcb9843d60f6159c9db58835c9266440260801c9161365d565b916fffe5caca7e10e4e61c3624eaa0941cd00260801c91613654565b916ffff2e50f5f656932ef12357cf3c7fdcc0260801c9161364b565b916ffff97272373d413259a46990580e213a0260801c91613642565b826345c3193d60e11b5f5260045260245ffd5b6040519061393882611399565b5f6040838281528260208201520152565b905f19820191821360011661145e57565b81810392915f13801582851316918412161761145e57565b801561145e575f190190565b60020b9060020b9081156139a057627fffff1981145f1983141661145e570590565b634e487b7160e01b5f52601260045260245ffd5b8181029291811591840414171561145e57565b81156139a0570490565b929190916139dd614a58565b936139eb60135480966139b4565b946139f96010548097611472565b9060115496878311613ce3575b613a0e614a58565b6001810180911161145e57613a2b92613a26916139b4565b611472565b95808711613cdb575b50808614613c9e575f95808203613c62575b50506015549384805b613c21575b50613a6b6020613a75920194855160020b906135e1565b8560020b9061397e565b9184613aac60ff60145460181c1694855f14613be757606085015160020b90818160020b125f14613be057505b97600d54906152f8565b9180613ab883856139b4565b11613bd0575050925b5160020b94613acf856115ae565b95613add60405197886113b4565b858752601f19613aec876115ae565b015f5b818110613bb95750505f905b868210613b0c575050505050505090565b613b16828961165d565b519060020b90526001613b48613b3a84613b30858c61165d565b515160020b61206b565b606086015160020b90615133565b916020613b55828b61165d565b51018360020b9052613b9a878a613b936020613b8886613b82613b78828761165d565b515160020b6135fe565b9461165d565b51015160020b6135fe565b90896151fa565b6040613ba6838c61165d565b510190838060801b031690520190613afb565b602090613bc461392b565b82828c01015201613aef565b613bda92506139c7565b92613ac1565b9050613aa2565b60608501613bf8815160020b612058565b60020b8260020b125f14613c0e57505b976117dc565b613c1c91505160020b612058565b613c08565b945f19860186811161145e57613c369061522f565b613c3f8761522f565b03613c5c57613c50613c5691613972565b95613972565b80613a4f565b94613a54565b613c96929650613c7f613c90916117d66117cd60105480936115a1565b916117d66117cd60105480936115a1565b906115a1565b935f80613a46565b505050505050604051613cb26020826113b4565b5f81525f805b818110613cc457505090565b602090613ccf61392b565b82828601015201613cb8565b95505f613a34565b879250613a06565b805115158252602080820151908301526040908101516001600160a01b0316910152565b600160ff1b811461145e575f0390565b9392916001600160a01b0391821691168181036141eb575b50505f915f5b8451811015613eaa576001600160801b036040613d5a838861165d565b51015116613d6b575b600101613d3d565b613e1b90604060ff60145460181c16805f14613e9257613d8b838961165d565b515160020b905b15613e7e576020613da3848a61165d565b51015160020b5b613dc96001600160801b0384613dc0878d61165d565b51015116613504565b60ff6060613dd7878d61165d565b5101511691845193613de885611333565b60020b845260020b6020840152600f0b838301526060820152815180948192632d35e7ed60e11b83528860048401611531565b03815f7f00000000000000000000000000000000000000000000000000000000000000006001600160a01b03165af1918215610e3557600192613e61575b509050613d63565b613e789060403d8111611d9957611d8b81836113b4565b50613e59565b613e88838961165d565b515160020b613daa565b6020613e9e848a61165d565b51015160020b90613d92565b50815191935091907f000000000000000000000000000000000000000000000000000000000000000090613ee8906001600160a01b03163083613565565b906020850194613f0260018060a01b038751163084613565565b925f8113614184575b84841361410f575b84811261401c575b5050828212613f2c575b5050509050565b84516001600160a01b039081169591169190823b156140185760405195632961046560e21b87526004870152838660248183875af195861561074b57849596613ffb575b505160209291613f95916001600160a01b0316908390613f8f90613d0f565b9161485c565b600460405180958193630476982d60e21b83525af1908115613fef5750613fc0575b80808392613f25565b613fe19060203d602011613fe8575b613fd981836113b4565b810190613556565b505f613fb7565b503d613fcf565b604051903d90823e3d90fd5b8461400a9195929394956113b4565b61401857908392915f613f70565b8380fd5b81516001600160a01b03848116939116833b15612b925760405190632961046560e21b82526004820152868160248183885af18015614104579087916140ef575b505080516001600160a01b0316806140db575b50516001600160a01b03166140d15761408a602091613d0f565b915b600460405180948193630476982d60e21b83525af1801561074b576140b2575b80613f1b565b6140ca9060203d602011613fe857613fd981836113b4565b505f6140ac565b506020849161408c565b6140e99084613f8f85613d0f565b5f614070565b816140f9916113b4565b612bf557855f61405d565b6040513d89823e3d90fd5b86516001600160a01b038481169116813b15612b92578561414b92889283604051809681958294630b0d9c0960e01b845230906004850161157f565b03925af1801561417957908691614164575b5050613f13565b8161416e916113b4565b611eb957845f61415d565b6040513d88823e3d90fd5b81516001600160a01b03908116908416803b15610e4057825f916141c19383604051809681958294630b0d9c0960e01b845230906004850161157f565b03925af18015610e35576141d6575b50613f0b565b6141e39195505f906113b4565b5f935f6141d0565b604051916141f883611399565b8110825260016020830152604082015261423060405191633cf3645360e21b835261422660048401856114ee565b60a4830190613ceb565b6101206101048201525f610124820152602081610144815f60018060a01b037f0000000000000000000000000000000000000000000000000000000000000000165af18015610e3557614284575b80613d37565b61429c9060203d602011613fe857613fd981836113b4565b505f61427e565b60ff5f541661480c5760a06142b93660246113e7565b20906142f57f0000000000000000000000000000000000000000000000000000000000000000926142ea818561499f565b939290949150614a8c565b60020b94620d89e71986148015614800575b6145b4575b505060015f52600760205260405f205460020b9160ff5f54165f146145785750505f905b60145460181c60ff16156144c75783126144b857608082901d5f600f82900b126144735760035461436a916001600160801b031690611472565b6003555b600f82900b5f81126144195750505f805160206156f1833981519152916143a160609260018060801b03166004546115a1565b6004555b600454600f548110156143d5575b6003549060405192835260208301526040820152a163b47b2fb160e01b905f90565b61010061ff00195f5416175f557f628a470bfdde264ef77cd19acfbfca22b3e4413adaf5837ec9fbc0043e35793f602061440d614a58565b604051908152a16143b3565b62ffffff919250614429906114c1565b9116620f42400391620f4240831161145e575f805160206156f18339815191529260609261446b91614463916001600160801b03166153bc565b600454611472565b6004556143a5565b61447c906114c1565b62ffffff8216620f42400390620f4240821161145e576144b0916144a8916001600160801b03166153bc565b6003546115a1565b60035561436e565b637de7c0cb60e11b5f5260045ffd5b83929192136144b857600f81900b5f811261453b57506003546144f4906001600160801b03831690611472565b6003555b60801d905f600f83900b1261452d57505f805160206156f18339815191529161446b60609260018060801b03166004546115a1565b9061442962ffffff916114c1565b614544906114c1565b62ffffff8316620f42400390620f4240821161145e57614570916144a8916001600160801b03166153bc565b6003556144f8565b60c435908115158203610e405762ffffff91610fff918291156145ab57165b169116620f42408183020491010390614330565b600c1c16614597565b60155480600301908160031161145e5760020190811161145e575f5260076020526145e160405f2061147f565b60145460181c60ff16929083156147f3575160020b925b614601846135fe565b6040519161460e83611399565b15158252600160208301526001600160a01b0390811660408084019190915251633cf3645360e21b815291906024359081168103610e40576001600160a01b0390811660048401526044359081168103610e40576001600160a01b0316602483015260643562ffffff81168103610e405762ffffff1660448301526084358060020b8103610e405760020b606483015260a435906001600160a01b0382168203610e40576001600160a01b0390911660848301526146d09060a4830190613ceb565b6101206101048201525f610124820152602081610144815f60018060a01b0388165af1908115610e35575f916147c1575b508060801d600f0b1590816147b5575b501561477b576147209161499f565b505091905060020b9060020b03614738575f8061430c565b60405162461bcd60e51b815260206004820152601b60248201527a0496e76616c6964206e6577207469636b206166746572207377617602c1b6044820152606490fd5b60405162461bcd60e51b8152602060048201526012602482015271496e76616c696420737761702064656c746160701b6044820152606490fd5b9050600f0b155f614711565b90506020813d6020116147eb575b816147dc602093836113b4565b81010312610e4057515f614701565b3d91506147cf565b6020015160020b926145f8565b50620d89e88614614307565b5063b47b2fb160e01b905f90565b6001600160a01b03168061482d57504790565b6020602491604051928380926370a0823160e01b82523060048301525afa908115610e35575f916135b2575090565b9091906001600160a01b03811690816148ea5750505f80808093855af1156148815750565b6040516390bfb86560e01b81526001600160a01b0390911660048201525f602482018190526080604483015260a03d601f01601f191690810160648401523d6084840152903d9060a484013e808201600460a482015260c4633d2cec6f60e21b91015260e40190fd5b60205f604481949682604095865198899363a9059cbb60e01b855260018060a01b0316600485015260248401525af13d15601f3d1160018551141617169282815282602082015201521561493b5750565b6040516390bfb86560e01b8152600481019190915263a9059cbb60e01b602482015260806044820152601f3d01601f191660a0810160648301523d60848301523d5f60a484013e808201600460a482015260c4633c9fd93960e21b91015260e40190fd5b919060209060405182810191825260066040820152604081526149c36060826113b4565b519020604051631e2eaeaf60e01b8152600481019190915292839060249082906001600160a01b03165afa918215610e35575f92614a24575b506001600160a01b0382169160a081901c60020b9162ffffff60b883901c81169260d01c1690565b9091506020813d602011614a50575b81614a40602093836113b4565b81010312610e405751905f6149fc565b3d9150614a33565b601054804210614a8657614a6f614a7891426115a1565b601354906139c7565b6001810180911161145e5790565b50600190565b73fffd8963efd1fc6a506488495d951d51639616826401000276a21982016001600160a01b031611614d2557602081901b600160201b600160c01b0316808015610e4057693627a301d71055774c859160ff8260018060801b031060071b83811c60018060401b031060061b1783811c63ffffffff1060051b1783811c61ffff1060041b1783811c821060031b177b01c1818141808140018080c0814100004181408140c0c100414140c160221b6f8421084210842108cc6318c6db6d54be85831c1c601f161a17169160808310155f14614d195750607e1982011c5b800280607f1c8160ff1c1c800280607f1c8160ff1c1c800280607f1c8160ff1c1c800280607f1c8160ff1c1c800280607f1c8160ff1c1c800280607f1c8160ff1c1c80029081607f1c8260ff1c1c80029283607f1c8460ff1c1c80029485607f1c8660ff1c1c80029687607f1c8860ff1c1c80029889607f1c8a60ff1c1c80029a8b607f1c8c60ff1c1c80029c8d80607f1c9060ff1c1c600160321b90800260cd1c169d600160331b9060cc1c169c600160341b9060cb1c169b600160351b9060ca1c169a600160361b9060c91c1699600160371b9060c81c1698600160381b9060c71c1697600160391b9060c61c16966001603a1b9060c51c16956001603b1b9060c41c16946001603c1b9060c31c16936001603d1b9060c21c16926001603e1b9060c11c16916001603f1b9060c01c1690607f190160401b1717171717171717171717171717026fdb2df09e81959a81455e260799a0632f6f028f6481ab7f045a5af012a19d003aa919820160801d60020b910160801d60020b918282145f14614cf55750905090565b6001600160a01b0390811690614d0a846135fe565b1611614d14575090565b905090565b905081607f031b614b69565b6318521d4960e21b5f9081526001600160a01b0391909116600452602490fd5b91905f905f905f5b8551811015614ed8576001600160801b036040614d6a838961165d565b51015116614d7b575b600101614d4d565b9192614e2a604060ff60145460181c16805f14614ec057614d9c868a61165d565b515160020b905b15614eac576020614db4878b61165d565b51015160020b5b8960ff6060614de68a613b826001600160801b0389614dda848961165d565b51015116600f0b6114c1565b5101511691845193614df785611333565b60020b845260020b6020840152600f0b838301526060820152815180938192632d35e7ed60e11b83528760048401611531565b03815f7f00000000000000000000000000000000000000000000000000000000000000006001600160a01b03165af1918215610e3557600192614e81925f905f92614e89575b50614e7b9192613523565b95613523565b929050614d73565b614e7b9250614ea6915060403d8111611d9957611d8b81836113b4565b91614e70565b614eb6868a61165d565b515160020b614dbb565b6020614ecc878b61165d565b51015160020b90614da3565b505091909250614eea82600654613523565b600655565b9093929193614efc61392b565b9460ff60145460181c169082825f146150535790614f199161552b565b6001600160a01b031680614f3e575050505060020b80835260208301525f6040830152565b615038939450614fee6060614fe0836150209460018060881b031060071b81811c60018060481b031060061b1781811c64ffffffffff1060051b1781811c62ffffff1060041b1760b56201000083831c019160011c1b0260121c8082040160011c8082040160011c8082040160011c8082040160011c8082040160011c8082040160011c8082040160011c808060018060a01b03930410900360301b16614a8c565b960195865160020b90615133565b60020b6020880181815295908315615040575061501590865160020b905160020b906135e1565b60020b8088526135fe565b93516001600160801b0394906129dd9060020b6135fe565b166040830152565b61504e915160020b9061206b565b615015565b61505c9161552b565b614f19565b90670de0b6b3a7640000820291808305670de0b6b3a7640000149015171561145e57565b81810292915f8212600160ff1b82141661145e57818405149015171561145e57565b9060018201915f60018412911290801582169115161761145e57565b9190915f838201938412911290801582169115161761145e57565b9081600f0b9182036150ec57565b6393dafdf160e01b5f5260045ffd5b80628000000160181c15615116576335278d125f526004601cfd5b60020b90565b9060020b9060020b02908160020b91820361145e57565b60145460181c60ff1615615190575f8160020b125f1461518257615159826001926135e1565b60020b0190627fffff8213627fffff1983121761145e5761517d81611e4e9361397e565b61511c565b9061517d81611e4e9361397e565b5f8160020b125f146151aa579061517d81611e4e9361397e565b816151b49161206b565b60020b5f190190627fffff198212627fffff83131761145e5761517d81611e4e9361397e565b6117dc6117bd6117b46117ab6117a6611e4e956151f5614a58565b6150c3565b90929091908015615229575f19810190811161145e57915b1561522057611e4e9261564e565b611e4e9261560b565b91615212565b61524a61524161525392613a26614a58565b601354906139b4565b60105490611472565b601154808211614d14575090565b90670de0b6b3a76400008202905f19670de0b6b3a7640000840992828085109403938085039485841115610e4057146152f157670de0b6b3a764000082910981805f03168092046002816003021880820260020302808202600203028082026002030280820260020302808202600203028091026002030293600183805f03040190848311900302920304170290565b5091500490565b808202905f1983820990828083109203918083039283670de0b6b3a76400001115610e405714615362577faccb18165bd6fe31ae1cf318dc5b51eee0e1ba569b88cd74c1773b91fac1066993670de0b6b3a7640000910990828211900360ee1b910360121c170290565b5050670de0b6b3a764000091500490565b81810291905f1982820991838084109303928084039384600160601b1115610e4057146153b357600160601b910990828211900360a01b910360601c1790565b50505060601c90565b808202905f1983820990828083109203918083039283620f42401115610e40571461541c577fde8f6cefed634549b62c77574f722e1ac57e23f24d8fd5cb790fb65668c2613993620f4240910990828211900360fa1b910360061c170290565b5050620f424091500490565b90606082901b905f19600160601b840992828085109403938085039485841115610e4057146152f1578190600160601b900981805f03168092046002816003021880820260020302808202600203028082026002030280820260020302808202600203028091026002030293600183805f03040190848311900302920304170290565b91818302915f1981850993838086109503948086039586851115610e405714615523579082910981805f03168092046002816003021880820260020302808202600203028082026002030280820260020302808202600203028091026002030293600183805f03040190848311900302920304170290565b505091500490565b9061553591615428565b6001600160a01b03811161555b57600160a01b811015613516576001600160a01b031690565b505f90565b6155a6612d5861557661316260a0612142611f24565b60145460181c60ff16156155da5760125460020b808260020b135f146155d357505b60125460181c60020b6135e1565b6155b8614a6f601154601054906115a1565b9081156139a057600160ff1b81145f1983141661145e570590565b9050615598565b60125460020b808260020b125f146155d35750615598565b6001600160a01b03918216908216039190821161145e57565b611e4e926156439290916001600160a01b0380831690821611615648575b6001600160a01b039161563c91906155f2565b1690615428565b6156a2565b90615629565b611e4e92615643929091906001600160a01b038082169083161161569c575b6156956156866001600160a01b03838116908516615373565b926001600160a01b03926155f2565b16916154ab565b9061566d565b6001600160801b038116919082036156b657565b60405162461bcd60e51b81526020600482015260126024820152716c6971756964697479206f766572666c6f7760701b6044820152606490fdfe27db09392d7d230eb65a11bd84925fb8da90df8a067ca8a4fc2933b4f637262bb7c774451310d1be4108bc180d1b52823cb0ee0274a6c0081bcaf94f115fb96da164736f6c634300081a000a","linkReferences":{}},"methodIdentifiers":{"afterAddLiquidity(address,(address,address,uint24,int24,address),(int24,int24,int256,bytes32),int256,int256,bytes)":"9f063efc","afterDonate(address,(address,address,uint24,int24,address),uint256,uint256,bytes)":"e1b4af69","afterInitialize(address,(address,address,uint24,int24,address),uint160,int24)":"6fe7e6eb","afterRemoveLiquidity(address,(address,address,uint24,int24,address),(int24,int24,int256,bytes32),int256,int256,bytes)":"6c2bbe7e","afterSwap(address,(address,address,uint24,int24,address),(bool,int256,uint160),int256,bytes)":"b47b2fb1","beforeAddLiquidity(address,(address,address,uint24,int24,address),(int24,int24,int256,bytes32),bytes)":"259982e5","beforeDonate(address,(address,address,uint24,int24,address),uint256,uint256,bytes)":"b6a8b0fa","beforeInitialize(address,(address,address,uint24,int24,address),uint160)":"dc98354e","beforeRemoveLiquidity(address,(address,address,uint24,int24,address),(int24,int24,int256,bytes32),bytes)":"21d0ee70","beforeSwap(address,(address,address,uint24,int24,address),(bool,int256,uint160),bytes)":"575e24b4","earlyExit()":"a4dee155","endingTick()":"b3566030","endingTime()":"6c47a6c3","epochLength()":"57d775f8","gamma()":"b1373929","getHookPermissions()":"c4e833ce","initialLpFee()":"18cb1700","initializer()":"9ce110d7","insufficientProceeds()":"d0c52e21","isInitialized()":"392e53cd","isToken0()":"dcf93f32","maximumProceeds()":"d65b4cb9","migrate(address)":"ce5494bb","minimumProceeds()":"897479cb","numPDSlugs()":"90ebab0a","numTokensToSell()":"ee464430","poolKey()":"182148ef","poolManager()":"dc4c90d3","positions(bytes32)":"514ea4bf","startingTick()":"c70dfb4f","startingTime()":"39518b5e","state()":"c19d93fb","unlockCallback(bytes)":"91dd7346"},"id":296}